{
  "_format": "hh-sol-artifact-1",
  "contractName": "QGift",
  "sourceName": "contracts/QGift.sol",
  "abi": [
    {
      "anonymous": false,
      "inputs": [
        {
          "indexed": true,
          "internalType": "address",
          "name": "sender",
          "type": "address"
        },
        {
          "indexed": true,
          "internalType": "address",
          "name": "recipient",
          "type": "address"
        },
        {
          "indexed": false,
          "internalType": "uint256",
          "name": "amount",
          "type": "uint256"
        },
        {
          "indexed": false,
          "internalType": "string",
          "name": "occasion",
          "type": "string"
        },
        {
          "indexed": false,
          "internalType": "string",
          "name": "message",
          "type": "string"
        }
      ],
      "name": "GiftSent",
      "type": "event"
    },
    {
      "inputs": [],
      "name": "CUSD",
      "outputs": [
        {
          "internalType": "address",
          "name": "",
          "type": "address"
        }
      ],
      "stateMutability": "view",
      "type": "function"
    },
    {
      "inputs": [
        {
          "internalType": "address",
          "name": "recipient",
          "type": "address"
        },
        {
          "internalType": "uint256",
          "name": "amount",
          "type": "uint256"
        },
        {
          "internalType": "string",
          "name": "occasion",
          "type": "string"
        },
        {
          "internalType": "string",
          "name": "message",
          "type": "string"
        }
      ],
      "name": "sendGift",
      "outputs": [],
      "stateMutability": "nonpayable",
      "type": "function"
    }
  ],
  "bytecode": "0x6080604052348015600f57600080fd5b5061044c8061001f6000396000f3fe608060405234801561001057600080fd5b50600436106100365760003560e01c8063758316c91461003b578063a302d33314610072575b600080fd5b61005673765de816845861e75a25fca122bb6898b8b1282a81565b6040516001600160a01b03909116815260200160405180910390f35b6100856100803660046102ee565b610087565b005b6001600160a01b0386166100d65760405162461bcd60e51b8152602060048201526011602482015270125b9d985b1a59081c9958da5c1a595b9d607a1b60448201526064015b60405180910390fd5b600085116101265760405162461bcd60e51b815260206004820181905260248201527f416d6f756e74206d7573742062652067726561746572207468616e207a65726f60448201526064016100cd565b336001600160a01b038716036101755760405162461bcd60e51b815260206004820152601460248201527321b0b73737ba1033b4b33a103cb7bab939b2b63360611b60448201526064016100cd565b6040516323b872dd60e01b81523360048201526001600160a01b03871660248201526044810186905260009073765de816845861e75a25fca122bb6898b8b1282a906323b872dd906064016020604051808303816000875af11580156101df573d6000803e3d6000fd5b505050506040513d601f19601f82011682018060405250810190610203919061038b565b9050806102495760405162461bcd60e51b815260206004820152601460248201527318d554d1081d1c985b9cd9995c8819985a5b195960621b60448201526064016100cd565b866001600160a01b0316336001600160a01b03167f0ef7669be53c413afce1737031993aa8b0c8362d29aa08d7f116f772139e2e0588888888886040516102949594939291906103dd565b60405180910390a350505050505050565b60008083601f8401126102b757600080fd5b50813567ffffffffffffffff8111156102cf57600080fd5b6020830191508360208285010111156102e757600080fd5b9250929050565b6000806000806000806080878903121561030757600080fd5b86356001600160a01b038116811461031e57600080fd5b955060208701359450604087013567ffffffffffffffff81111561034157600080fd5b61034d89828a016102a5565b909550935050606087013567ffffffffffffffff81111561036d57600080fd5b61037989828a016102a5565b979a9699509497509295939492505050565b60006020828403121561039d57600080fd5b815180151581146103ad57600080fd5b9392505050565b81835281816020850137506000828201602090810191909152601f909101601f19169091010190565b8581526060602082015260006103f76060830186886103b4565b828103604084015261040a8185876103b4565b9897505050505050505056fea2646970667358221220d433af10c7bf6fc672b76015cafe2159bd22ca436bf3772a8969d7f700ed40f964736f6c634300081c0033",
  "linkReferences": {},
  "deployedLinkReferences": {}
}